{
    "_format": "hh-sol-artifact-1",
    "contractName": "Profile",
    "sourceName": "contracts/Profile.sol",
    "abi": [
        {
            "inputs": [],
            "stateMutability": "nonpayable",
            "type": "constructor"
        },
        {
            "anonymous": false,
            "inputs": [
                {
                    "indexed": false,
                    "internalType": "uint256",
                    "name": "userId",
                    "type": "uint256"
                },
                {
                    "indexed": false,
                    "internalType": "address",
                    "name": "user",
                    "type": "address"
                }
            ],
            "name": "CreateNewProfile",
            "type": "event"
        },
        {
            "inputs": [
                {
                    "internalType": "string",
                    "name": "name",
                    "type": "string"
                },
                {
                    "internalType": "string",
                    "name": "work",
                    "type": "string"
                },
                {
                    "internalType": "uint64",
                    "name": "age",
                    "type": "uint64"
                },
                {
                    "internalType": "string",
                    "name": "url",
                    "type": "string"
                }
            ],
            "name": "CreateNewUser",
            "outputs": [
                {
                    "internalType": "bool",
                    "name": "",
                    "type": "bool"
                }
            ],
            "stateMutability": "nonpayable",
            "type": "function"
        },
        {
            "inputs": [],
            "name": "getCurrentIndex",
            "outputs": [
                {
                    "internalType": "uint256",
                    "name": "",
                    "type": "uint256"
                }
            ],
            "stateMutability": "view",
            "type": "function"
        },
        {
            "inputs": [
                {
                    "internalType": "address",
                    "name": "userAddress",
                    "type": "address"
                }
            ],
            "name": "getUserDataOfAddress",
            "outputs": [
                {
                    "components": [
                        {
                            "internalType": "uint256",
                            "name": "id",
                            "type": "uint256"
                        },
                        {
                            "internalType": "string",
                            "name": "name",
                            "type": "string"
                        },
                        {
                            "internalType": "string",
                            "name": "work",
                            "type": "string"
                        },
                        {
                            "internalType": "uint64",
                            "name": "age",
                            "type": "uint64"
                        },
                        {
                            "internalType": "string",
                            "name": "profileUrl",
                            "type": "string"
                        }
                    ],
                    "internalType": "struct Profile.UserData",
                    "name": "",
                    "type": "tuple"
                }
            ],
            "stateMutability": "view",
            "type": "function"
        },
        {
            "inputs": [],
            "name": "index",
            "outputs": [
                {
                    "internalType": "uint256",
                    "name": "",
                    "type": "uint256"
                }
            ],
            "stateMutability": "view",
            "type": "function"
        },
        {
            "inputs": [
                {
                    "internalType": "address",
                    "name": "",
                    "type": "address"
                }
            ],
            "name": "profiles",
            "outputs": [
                {
                    "internalType": "uint256",
                    "name": "id",
                    "type": "uint256"
                },
                {
                    "internalType": "string",
                    "name": "name",
                    "type": "string"
                },
                {
                    "internalType": "string",
                    "name": "work",
                    "type": "string"
                },
                {
                    "internalType": "uint64",
                    "name": "age",
                    "type": "uint64"
                },
                {
                    "internalType": "string",
                    "name": "profileUrl",
                    "type": "string"
                }
            ],
            "stateMutability": "view",
            "type": "function"
        }
    ],
    "bytecode": "0x608060405234801561001057600080fd5b5060008081905550610eea806100276000396000f3fe608060405234801561001057600080fd5b50600436106100575760003560e01c80630d9005ae1461005c5780632986c0e51461007a578063350bf16314610098578063709e7c47146100c8578063bbe15627146100f8575b600080fd5b61006461012c565b6040516100719190610b88565b60405180910390f35b610082610135565b60405161008f9190610b88565b60405180910390f35b6100b260048036038101906100ad91906108f0565b61013b565b6040516100bf9190610b2b565b60405180910390f35b6100e260048036038101906100dd91906108c7565b61032c565b6040516100ef9190610b66565b60405180910390f35b610112600480360381019061010d91906108c7565b610577565b604051610123959493929190610bcc565b60405180910390f35b60008054905090565b60005481565b600080600160003373ffffffffffffffffffffffffffffffffffffffff1673ffffffffffffffffffffffffffffffffffffffff16815260200190815260200160002060000154146101c1576040517f08c379a00000000000000000000000000000000000000000000000000000000081526004016101b890610b46565b60405180910390fd5b60016000808282546101d39190610cc2565b9250508190555060006040518060a0016040528060005481526020018781526020018681526020018567ffffffffffffffff16815260200184815250905080600160003373ffffffffffffffffffffffffffffffffffffffff1673ffffffffffffffffffffffffffffffffffffffff168152602001908152602001600020600082015181600001556020820151816001019080519060200190610277929190610759565b506040820151816002019080519060200190610294929190610759565b5060608201518160030160006101000a81548167ffffffffffffffff021916908367ffffffffffffffff16021790555060808201518160040190805190602001906102e0929190610759565b509050507f9aaeaa1e93264ec8acac1faee735815e8113cf131417e7c295d250d0e5e154d460005433604051610317929190610ba3565b60405180910390a16001915050949350505050565b6103346107df565b600160008373ffffffffffffffffffffffffffffffffffffffff1673ffffffffffffffffffffffffffffffffffffffff1681526020019081526020016000206040518060a00160405290816000820154815260200160018201805461039890610db6565b80601f01602080910402602001604051908101604052809291908181526020018280546103c490610db6565b80156104115780601f106103e657610100808354040283529160200191610411565b820191906000526020600020905b8154815290600101906020018083116103f457829003601f168201915b5050505050815260200160028201805461042a90610db6565b80601f016020809104026020016040519081016040528092919081815260200182805461045690610db6565b80156104a35780601f10610478576101008083540402835291602001916104a3565b820191906000526020600020905b81548152906001019060200180831161048657829003601f168201915b505050505081526020016003820160009054906101000a900467ffffffffffffffff1667ffffffffffffffff1667ffffffffffffffff1681526020016004820180546104ee90610db6565b80601f016020809104026020016040519081016040528092919081815260200182805461051a90610db6565b80156105675780601f1061053c57610100808354040283529160200191610567565b820191906000526020600020905b81548152906001019060200180831161054a57829003601f168201915b5050505050815250509050919050565b60016020528060005260406000206000915090508060000154908060010180546105a090610db6565b80601f01602080910402602001604051908101604052809291908181526020018280546105cc90610db6565b80156106195780601f106105ee57610100808354040283529160200191610619565b820191906000526020600020905b8154815290600101906020018083116105fc57829003601f168201915b50505050509080600201805461062e90610db6565b80601f016020809104026020016040519081016040528092919081815260200182805461065a90610db6565b80156106a75780601f1061067c576101008083540402835291602001916106a7565b820191906000526020600020905b81548152906001019060200180831161068a57829003601f168201915b5050505050908060030160009054906101000a900467ffffffffffffffff16908060040180546106d690610db6565b80601f016020809104026020016040519081016040528092919081815260200182805461070290610db6565b801561074f5780601f106107245761010080835404028352916020019161074f565b820191906000526020600020905b81548152906001019060200180831161073257829003601f168201915b5050505050905085565b82805461076590610db6565b90600052602060002090601f01602090048101928261078757600085556107ce565b82601f106107a057805160ff19168380011785556107ce565b828001600101855582156107ce579182015b828111156107cd5782518255916020019190600101906107b2565b5b5090506107db9190610818565b5090565b6040518060a00160405280600081526020016060815260200160608152602001600067ffffffffffffffff168152602001606081525090565b5b80821115610831576000816000905550600101610819565b5090565b600061084861084384610c65565b610c34565b90508281526020810184848401111561086057600080fd5b61086b848285610d74565b509392505050565b60008135905061088281610e86565b92915050565b600082601f83011261089957600080fd5b81356108a9848260208601610835565b91505092915050565b6000813590506108c181610e9d565b92915050565b6000602082840312156108d957600080fd5b60006108e784828501610873565b91505092915050565b6000806000806080858703121561090657600080fd5b600085013567ffffffffffffffff81111561092057600080fd5b61092c87828801610888565b945050602085013567ffffffffffffffff81111561094957600080fd5b61095587828801610888565b9350506040610966878288016108b2565b925050606085013567ffffffffffffffff81111561098357600080fd5b61098f87828801610888565b91505092959194509250565b6109a481610d18565b82525050565b6109b381610d2a565b82525050565b60006109c482610c95565b6109ce8185610ca0565b93506109de818560208601610d83565b6109e781610e75565b840191505092915050565b60006109fd82610c95565b610a078185610cb1565b9350610a17818560208601610d83565b610a2081610e75565b840191505092915050565b6000610a38601483610cb1565b91507f5573657220616c726561647920657869736974730000000000000000000000006000830152602082019050919050565b600060a083016000830151610a836000860182610aef565b5060208301518482036020860152610a9b82826109b9565b91505060408301518482036040860152610ab582826109b9565b9150506060830151610aca6060860182610b0d565b5060808301518482036080860152610ae282826109b9565b9150508091505092915050565b610af881610d56565b82525050565b610b0781610d56565b82525050565b610b1681610d60565b82525050565b610b2581610d60565b82525050565b6000602082019050610b4060008301846109aa565b92915050565b60006020820190508181036000830152610b5f81610a2b565b9050919050565b60006020820190508181036000830152610b808184610a6b565b905092915050565b6000602082019050610b9d6000830184610afe565b92915050565b6000604082019050610bb86000830185610afe565b610bc5602083018461099b565b9392505050565b600060a082019050610be16000830188610afe565b8181036020830152610bf381876109f2565b90508181036040830152610c0781866109f2565b9050610c166060830185610b1c565b8181036080830152610c2881846109f2565b90509695505050505050565b6000604051905081810181811067ffffffffffffffff82111715610c5b57610c5a610e46565b5b8060405250919050565b600067ffffffffffffffff821115610c8057610c7f610e46565b5b601f19601f8301169050602081019050919050565b600081519050919050565b600082825260208201905092915050565b600082825260208201905092915050565b6000610ccd82610d56565b9150610cd883610d56565b9250827fffffffffffffffffffffffffffffffffffffffffffffffffffffffffffffffff03821115610d0d57610d0c610de8565b5b828201905092915050565b6000610d2382610d36565b9050919050565b60008115159050919050565b600073ffffffffffffffffffffffffffffffffffffffff82169050919050565b6000819050919050565b600067ffffffffffffffff82169050919050565b82818337600083830152505050565b60005b83811015610da1578082015181840152602081019050610d86565b83811115610db0576000848401525b50505050565b60006002820490506001821680610dce57607f821691505b60208210811415610de257610de1610e17565b5b50919050565b7f4e487b7100000000000000000000000000000000000000000000000000000000600052601160045260246000fd5b7f4e487b7100000000000000000000000000000000000000000000000000000000600052602260045260246000fd5b7f4e487b7100000000000000000000000000000000000000000000000000000000600052604160045260246000fd5b6000601f19601f8301169050919050565b610e8f81610d18565b8114610e9a57600080fd5b50565b610ea681610d60565b8114610eb157600080fd5b5056fea2646970667358221220daf6fc633aa60b30116ee5f74bbac15dc98488959e3d7d74f56066057d94664b64736f6c63430008000033",
    "linkReferences": {},
    "deployedLinkReferences": {}
}